:020000040000FA
:06000000D1EF21F0120017
:020006001200E6
:060008007DEF1CF0120068
:02000E00C250DE
:08001000020B01E0010E1200D9
:0600180086EF1CF012004F
:02001E000100DF
:0C0020001A440000830000001D000000D6
:04002C00D9CFE6FF43
:10003000E1CFD9FFFE0EDBCF83F0E552E7CFD9FF4A
:100040001200D9CFE6FFE1CFD9FFFE0EDBCFE6FFEE
:1000500094EC21F0E5521E0EE66EEDEC21F0E55237
:100060000BEC22F007EC00F0000901E0FBD71E0EBC
:10007000E66EEDEC21F0E55202EC22F000D0E55204
:10008000E7CFD9FF1200D9CFE6FFE1CFD9FFFB0EB2
:10009000DBCF14F0FC0EDBCF15F0FD0EDBCF16F03E
:1000A000FE0EDBCF17F01450165C1550175804E203
:1000B000F36AF46A2CD02BD0FD0EDBCF16F0FE0EC7
:1000C000DBCF17F0FB0EDB50165C146EFC0EDB5022
:1000D0001758156EFF0ED8801454000E155404E204
:1000E000F368F46A14D013D0FD0EDBCF16F0FE0EC9
:1000F000DBCF17F0FB0EDB50165C146EFC0EDB50F2
:100100001758156E14C0F3FF15C0F4FF00D0E55268
:10011000E7CFD9FF1200D9CFE6FFE1CFD9FFE652F2
:1001200000017E2B8280050EE66EEDEC21F0E5529B
:100130008284050EE66EEDEC21F0E5528294050E08
:10014000E66EEDEC21F0E55282900001766BDF6AFD
:10015000070EDF5C01E3FBD18284050EE66EEDEC59
:1001600021F0E5528294050EE66EEDEC21F0E552A9
:10017000870EE66E66DFE552F3CF1CF0F4CF1DF07C
:100180001CC008F01DC009F002EC14F007C018F004
:1001900008C019F009C01AF00AC01BF018C0E6FF29
:1001A00019C0E6FF1AC0E6FF1BC0E6FF55EC16F0CB
:1001B000E552E552E552E55206C014F007C015F0CD
:1001C00008C016F009C017F0DF50040DF3CFE9FFA7
:1001D000F4CFEAFF840EE926000EEA22EECF1EF0ED
:1001E000EECF1FF0EECF20F0EFCF21F01EC00CF0CD
:1001F0001FC00DF020C00EF021C00FF014C007F09A
:1002000015C008F016C009F017C00AF0AEEC14F0E3
:1002100041EC15F00950E66EDF50EA6A600FE96EB6
:10022000000EEA22E552E750EF6EDF50EA6A670FF0
:10023000E96E000EEA22EF50030DF350166E176AB6
:1002400016C0E6FF17C0E6FF050EE66EE66ADF5051
:10025000EA6A600FE96E000EEA22EF50E66EE66A87
:1002600012DFE552E552E552E552E552E7CF17F0CD
:10027000E552E7CF16F0F3501624146EF450172011
:10028000156E020E0F0B05E0D89015321432E806F9
:10029000FBE1DF50EA6A670FE96E000EEA2214C044
:1002A000EFFFDF50EA6A670FE96E000EEA22EFCF38
:1002B00014F0020E145C50E2DF50040DF3CFE9FF9E
:1002C000F4CFEAFF840EE926000EEA22EECF14F006
:1002D000EECF15F0EECF16F0EFCF17F00C6A0D6AE7
:1002E000C00E0E6E3F0E0F6E14C007F015C008F062
:1002F00016C009F017C00AF071EC15F0010A2CE1E4
:100300000A0E146ED70E156E230E166E3C0E176E67
:10031000DF50040DF3CFE9FFF4CFEAFF840EE926A6
:10032000000EEA22EECF07F0EECF08F0EECF09F094
:10033000EFCF0AF014C00CF015C00DF016C00EF08F
:1003400017C00FF018EC14F00AC0EDFF09C0EDFF64
:1003500008C0EDFF07C0EFFFDF50EA6A670FE96EE4
:10036000000EEA22EF50100870E2DF50040DF3CFC8
:10037000E9FFF4CFEAFF840EE926000EEA22EECF71
:1003800018F0EECF19F0EECF1AF0EFCF1BF00A0EF7
:100390000C6ED70E0D6E230E0E6E3C0E0F6E18C037
:1003A00007F019C008F01AC009F01BC00AF017ECDA
:1003B00014F007C014F008C015F009C016F00AC008
:1003C00017F00C6A0D6A0E6A0F6A14C007F015C0A8
:1003D00008F016C009F017C00AF068EC15F0010A21
:1003E0002CE10A0E146ED70E156E230E166E3C0EFF
:1003F000176EDF50040DF3CFE9FFF4CFEAFF840E50
:10040000E926000EEA22EECF07F0EECF08F0EECF9D
:1004100009F0EFCF0AF014C00CF015C00DF016C0B3
:100420000EF017C00FF017EC14F00AC0EDFF09C072
:10043000EDFF08C0EDFF07C0EFFFDF50EA6A770F5E
:10044000E96E000EEA22EF6A69D0DF50EA6A770FA0
:10045000E96E000EEA22EF50146E156AD89015501E
:1004600004E6FF0E145C000E155808E2DF50EA6A3D
:10047000770FE96E000EEA22EF2A50D0DF50040D0C
:10048000F3CFE9FFF4CFEAFF840EE926000EEA225B
:10049000EECF14F0EECF15F0EECF16F0EFCF17F051
:1004A0000C6A0D6AC00E0E6E3F0E0F6E14C007F080
:1004B00015C008F016C009F017C00AF071EC15F06D
:1004C000010A2CE10A0E146ED70E156E230E166E5D
:1004D0003C0E176EDF50040DF3CFE9FFF4CFEAFFB7
:1004E000840EE926000EEA22EECF07F0EECF08F0E8
:1004F000EECF09F0EFCF0AF014C00CF015C00DF0EC
:1005000016C00EF017C00FF018EC14F00AC0EDFF83
:1005100009C0EDFF08C0EDFF07C0EFFFDF50EA6A3A
:10052000670FE96E000EEA22EFCF14F0000176515A
:10053000D88014540AE2DFCF75F0DF50EA6A670F03
:10054000E96E000EEA22EFCF76F0DF2A01D6E552FF
:10055000E552E7CFD9FF1200D9CFE6FFE1CFD9FFAF
:100560001F0E8314836EFE0EDB50200DF35083109C
:10057000836E00017F6BE552E7CFD9FF1200D9CF20
:10058000E6FFE1CFD9FF146814C00EF0FE0EDBCFFA
:1005900009F0DFEC21F0FE0E05C0DBFF00017F2B30
:1005A000030E7F5D3CE1FE0EDB50030DF3CFF6FF43
:1005B000F4CFF7FF9C0EF626210EF722010EF62649
:1005C000000EF7220800F550E66E76EC21F0E552B9
:1005D000FE0EDB50030DF3CFF6FFF4CFF7FF9C0EBA
:1005E000F626210EF722020EF626000EF72208004C
:1005F000F550E66E76EC21F0E552FE0EDB50030D71
:10060000F3CFF6FFF4CFF7FF9C0EF626210EF7226C
:100610000800F550E66E76EC21F0E55240D0FE0E73
:10062000DB50030DF3CFF6FFF4CFF7FF9C0EF62659
:10063000210EF7220800F550E66E76EC21F0E55227
:10064000FE0EDB50030DF3CFF6FFF4CFF7FF9C0E49
:10065000F626210EF722020EF626000EF7220800DB
:10066000F550E66E76EC21F0E552FE0EDB50030D00
:10067000F3CFF6FFF4CFF7FF9C0EF626210EF722FC
:10068000010EF626000EF7220800F550E66E76EC15
:1006900021F0E552060E00017F5D01E17F6BE5521E
:1006A000E7CFD9FF1200D9CFE6FFE1CFD9FF000194
:1006B0007F2B030E7F5D13E1FD0EDBCFE6FF76ECB3
:1006C00021F0E552FC0EDBCFE6FF76EC21F0E5529F
:1006D000FE0EDBCFE6FF76EC21F0E55217D0FE0EE2
:1006E000DBCFE6FF76EC21F0E552FC0EDBCFE6FF38
:1006F00076EC21F0E552FD0EDBCFE6FF76EC21F043
:10070000E552060E00017F5D01E17F6BE552E7CF08
:10071000D9FF1200D9CFE6FFE1CFD9FFFE0EDB40B3
:10072000E840E8401F0B040F0001806F80513C0837
:1007300002E23C0E806FE552E7CFD9FF1200D9CF1D
:10074000E6FFE1CFD9FF020EE126DF6A3C0EDF5C57
:1007500022E2010EDB6A0A0EF36E010EDBCFF4FF1C
:10076000F350F45C16E2010EDB503C0DF3CF14F0B5
:10077000F4CF15F0A80E1426040E1522DF500F0139
:100780001424E96E000E1520EA6EEF6A010EDB2AD2
:10079000E2D7DF2ADBD7020EE15C02E2E16AE55232
:1007A000E16EE552E7CFD9FF1200D9CFE6FFE1CFE6
:1007B000D9FFE6520A0EF36EFD0EDBCFF4FFF350C5
:1007C000F45C01E33CD0FD0EDBCFE6FF090EE55201
:1007D000D880E754E76EFD0EE7CFDBFFFE0EDB406F
:1007E000E840E8401F0BDF6E3C0EDF5C01E327D0E2
:1007F000FE0EDBCFE6FFDF50080DF350E552E75C5D
:10080000176E010E175204E0E846FE0B1706FCE1D6
:10081000166EFD0EDB503C0DF3CF14F0F4CF15F047
:10082000A80E1426040E15223B0ED880DF540F01AB
:100830001424E96E000E1520EA6E1650EF12E552F0
:10084000E552E7CFD9FF1200D9CFE6FFE1CFD9FFBC
:10085000FE0EDB50F76AB90FF66E270EF72208007E
:10086000F55000D0E552E7CFD9FF1200D9CFE6FF0F
:10087000E1CFD9FF040EE126DF6AFE0EDB50F76AF6
:10088000B90FF66E270EF7220800F550DF5C65E21F
:10089000166A800E176EDF5016C014F017C015F0E0
:1008A00005E0D89015321432E804FBE1020E14C0C2
:1008B000DBFF030E15C0DBFF010EDB6A0A0EF36ED1
:1008C000010EDBCFF4FFF350F45C45E2020EDBCF08
:1008D00018F0030EDBCF19F0FE0EDB50140DF3CF32
:1008E00016F0F4CF17F0990E1626240E1722010EDB
:1008F000DB50020D1650F324F66E1750F420F76EFD
:100900000900F5501814146E0900F5501914156EED
:10091000145015101DE0010EDBCFE6FF0A0EE55264
:10092000D880E754FF0FE66EFD0EDBCFE6FFFE0E2C
:10093000DB50F76AB90FF66E270EF7220800F55064
:10094000E552E724D880DF54E66E2FDFE552E5520A
:10095000010EDB2AB3D7DF2A90D7040EE15C02E256
:10096000E16AE552E16EE552E7CFD9FF1200D9CF37
:10097000E6FFE1CFD9FFFE0EDB50200802E1200E9A
:1009800053D0610EF36EFE0EDBCFF4FFF350F45C38
:1009900008E3FE0EDB507A0804E3FE0EDB509F0FE7
:1009A00043D0410EF36EFE0EDBCFF4FFF350F45C48
:1009B00008E3FE0EDB505A0804E3FE0EDB50BF0FC7
:1009C00033D0300EF36EFE0EDBCFF4FFF350F45C49
:1009D00009E3FE0EDB50390805E3FE0EDB50D00FB5
:1009E0001A0F22D0FE0EDB502D0802E1240E1CD07F
:1009F000FE0EDB502E0804E0FE0EDB502C0802E158
:100A0000250E12D0FE0EDB503A0804E0FE0EDB503D
:100A10003B0802E1260E08D0FE0EDB50210802E161
:100A2000270E02D0240E00D0E552E7CFD9FF1200E6
:100A3000D9CFE6FFE1CFD9FF030EE126020EDB6A34
:100A4000010EDB6A0A0EF36E010EDBCFF4FFF350EA
:100A5000F45C01E37FD0020EDB6A3C0E0001D8801B
:100A60008055DF6E3C0EDF5C5FE2010EDB503C0D1B
:100A7000F3CF14F0F4CF15F0A80E1426040E1522AF
:100A8000DF500F011424E96E000E1520EA6EEF50BE
:100A9000800B1FE03C0E0001D8808055DF5C14E025
:100AA000010EDB503C0DF3CF14F0F4CF15F0A80E7F
:100AB0001426040E1522DF040F011424E96E000E23
:100AC0001520EA6EEF8005D0010EF36E020EF3CF13
:100AD000DBFF010EDB503C0DF3CF16F0F4CF17F027
:100AE000A80E1626040E1722DF500F011624E96EF9
:100AF000000E1720EA6EEF50E824E66E010EDB5080
:100B00003C0DF3CF14F0F4CF15F0A80E1426040E0C
:100B10001522DF501424E96E000E1520EA6EE5520E
:100B2000E750EF6EDF2A9ED7020EDB5010E0010E79
:100B3000DB503C0DF3CFE9FFF4CFEAFFA80EE92626
:100B4000040EEA223B0EE926000EEA22EF80010E97
:100B5000DB2A78D7030EE15C02E2E16AE552E16E3E
:100B6000E552E7CFD9FF1200D9CFE6FFE1CFD9FF99
:100B7000E6520A0EF36EFD0EDBCFF4FFF350F45C89
:100B800002E3000E42D0FD0EDBCFE6FF090EE55278
:100B9000D880E754E76EFD0EE7CFDBFFFE0EDB40AB
:100BA000E840E8401F0BDF6E3C0EDF5C02E3000E06
:100BB0002CD0FE0EDBCFE6FFDF50080DF350E552E0
:100BC000E75C176E010E175204E0E846FE0B1706AD
:100BD000FCE1166EFD0EDB503C0DF3CF14F0F4CFAC
:100BE00015F0A80E1426040E15223B0ED880DF54F3
:100BF0000F011424E96E000E1520EA6EEF50161452
:100C000002E1000E01D0010E00D0E552E552E7CF1F
:100C1000D9FF1200D9CFE6FFE1CFD9FF00017F2B2A
:100C2000030E7F5D13E2FC0EDBCFE6FF76EC21F0D6
:100C3000E552FE0EDBCFE6FF76EC21F0E552FD0E2D
:100C4000DBCFE6FF76EC21F0E55212D0FC0EDBCFD5
:100C5000E6FF76EC21F0E552FE0EDBCFE6FF76EC08
:100C600021F0E552FD0EDBCFE6FF76EC21F0E552F8
:100C7000050E00017F5D01E17F6BE552E7CFD9FFF3
:100C80001200D9CFE6FFE1CFD9FF080EE12600011F
:100C9000675168256925E8407F0BE76E060EE7CFB0
:100CA000DBFF6A516B256C25E8407F0BE76E070E72
:100CB000E7CFDBFF060EDB50190805E2190EF36ED5
:100CC000060EF3CFDBFF070EDB50190805E2190E05
:100CD000F36E070EF3CFDBFFFA0EDB50E00BE838C4
:100CE000E840E76E030EE7CFDBFFF90EDB50E00BC9
:100CF000E838E840E76E040EE7CFDBFFF80EDB5084
:100D0000E00BE838E840E76E050EE7CFDBFFDF6A6F
:100D1000360EDF5C01E3C6D0060E156E15C00EF070
:100D2000DFCF09F0DFEC21F005C014F0030E145CF6
:100D300002E3000E01D0010EE76E020EE7CFDBFFEB
:100D4000DB041EE11A0E146E030E176E17C00EF0B0
:100D5000DFCF09F0DFEC21F005C016F0060E156EAE
:100D600015C00EF0DFCF09F0DFEC21F00950030DC4
:100D7000F3501624145CE76E010EE7CFDBFF1ED0A4
:100D80001A0E146E060E166E16C00EF0DFCF09F0A6
:100D9000DFEC21F00950030DF350020F156E030E26
:100DA000176E17C00EF0DFCF09F0DFEC21F0055011
:100DB000155C145CE76E010EE7CFDBFF020EDB046F
:100DC00038E1010EDBCFE6FF060EDB50E552E75CB3
:100DD000146E020E145C0EE2FB0EDBCFE6FFFC0E7F
:100DE000DBCFE6FFFD0EDBCFE6FF14DFE552E55279
:100DF000E5521ED0060EDB50F36E010EDBCFF4FF82
:100E0000F350F45C0EE2050EDBCFE6FF040EDBCF01
:100E1000E6FF030EDBCFE6FFFDDEE552E552E552CD
:100E200007D0E66AE66AE66AF5DEE552E552E55283
:100E300037D0010EDBCFE6FF070EDB50E552E75C53
:100E4000146E020E145C0EE2FB0EDBCFE6FFFC0E0E
:100E5000DBCFE6FFFD0EDBCFE6FFDCDEE552E55241
:100E6000E5521ED0070EDB50F36E010EDBCFF4FF10
:100E7000F350F45C0EE2050EDBCFE6FF040EDBCF91
:100E8000E6FF030EDBCFE6FFC5DEE552E552E55295
:100E900007D0E66AE66AE66ABDDEE552E552E5524B
:100EA000DF2A36D7080EE15C02E2E16AE552E16E24
:100EB000E552E7CFD9FF1200D9CFE6FFE1CFD9FF46
:100EC000270EE126010EDB6A070EF36E010EDBCF63
:100ED000F4FFF350F45C32E2010EDB50EA6A670F74
:100EE000E96E000EEA22EFCF16F016C009F0F1EC21
:100EF00013F0F60EDBCF0CF0F70EDBCF0DF0F80E93
:100F0000DBCF0EF0F90EDBCF0FF0AEEC14F041ECBE
:100F100015F00950E66ED950200F146EDACF15F097
:100F2000010EDB500F011424E96E000E1520EA6E4D
:100F3000E552E750EF6E010EDB2AC6D7F50EDB5007
:100F400001E02FD100016A516C25146E030E156E5D
:100F500015C00EF014C009F0DFEC21F009500001BB
:100F60008127822B8251010B01E062DD000181515A
:100F7000F66EF76A0D680E6AF6CF08F0F7CF09F043
:100F80001BEC15F004C0F6FF05C0F7FF030EF702D7
:100F9000F3CFF7FFF602F3CFF6FFF450F7269C0EDF
:100FA000F626210EF7220800F5407F0BE76E0B0EA8
:100FB000E7CFDBFF00018151F66EF76A0D680E6A1C
:100FC000F6CF08F0F7CF09F01BEC15F004C0F6FFE0
:100FD00005C0F7FF030EF702F3CFF7FFF602F3CFDA
:100FE000F6FFF450F7269C0EF626210EF722010E8E
:100FF000F626000EF7220800F5407F0BE76E120E72
:10100000E7CFDBFF00018151F66EF76A0D680E6ACB
:10101000F6CF08F0F7CF09F01BEC15F004C0F6FF8F
:1010200005C0F7FF030EF702F3CFF7FFF602F3CF89
:10103000F6FFF450F7269C0EF626210EF722020E3C
:10104000F626000EF7220800F5407F0BE76E190E1A
:10105000E7CFDBFF800E00018125F66EF76A000EF8
:10106000F7220D680E6AF6CF08F0F7CF09F01BECF7
:1010700015F004C0F6FF05C0F7FF030EF702F3CF2B
:10108000F7FFF602F3CFF6FFF450F7269C0EF62694
:10109000210EF7220800070EF5CFDBFF800E0001BE
:1010A0008125F66EF76A000EF7220D680E6AF6CFFC
:1010B00008F0F7CF09F01BEC15F004C0F6FF05C0EF
:1010C000F7FF030EF702F3CFF7FFF602F3CFF6FFB9
:1010D000F450F7269C0EF626210EF722010EF62676
:1010E000000EF7220800080EF5CFDBFF800E00018E
:1010F0008125F66EF76A000EF7220D680E6AF6CFAC
:1011000008F0F7CF09F01BEC15F004C0F6FF05C09E
:10111000F7FF030EF702F3CFF7FFF602F3CFF6FF68
:10112000F450F7269C0EF626210EF722020EF62624
:10113000000EF7220800090EF5CFDBFF010EDF6E6F
:10114000070EDF5C2DE2D9500B0F146EDACF15F0CD
:10115000DF500F011424E96E000E1520EA6E0B0E0D
:10116000DBCFEFFFD950120F146EDACF15F0DF503E
:101170001424E96E000E1520EA6E120EDBCFEFFF8D
:10118000D950190F146EDACF15F0DF501424E96E20
:10119000000E1520EA6E190EDBCFEFFFDF2AD0D745
:1011A00096D2F50EDB0401E0B6D000016A516C2541
:1011B000146E0A0E156E15C00EF014C009F0DFECA7
:1011C00021F0095000018127010EDF6E070EDF5C60
:1011D00001E3A0D0240EDF02F35000018125F66E5A
:1011E000F76A0D680E6AF6CF08F0F7CF09F01BEC2E
:1011F00015F004C0F6FF05C0F7FF030EF702F3CFAA
:10120000F7FFF602F3CFF6FFF450F7269C0EF62612
:10121000210EF7220800F550E66ED9500B0F146E20
:10122000DACF15F0DF500F011424E96E000E1520FF
:10123000EA6EE552E750EF6E240EDF02F350000134
:101240008125F66EF76A0D680E6AF6CF08F0F7CFC3
:1012500009F01BEC15F004C0F6FF05C0F7FF030E04
:10126000F702F3CFF7FFF602F3CFF6FFF450F726BD
:101270009C0EF626210EF722010EF626000EF7220E
:101280000800F550E66ED950120F146EDACF15F043
:10129000DF500F011424E96E000E1520EA6EE552AE
:1012A000E750EF6E240EDF02F35000018125F66E49
:1012B000F76A0D680E6AF6CF08F0F7CF09F01BEC5D
:1012C00015F004C0F6FF05C0F7FF030EF702F3CFD9
:1012D000F7FFF602F3CFF6FFF450F7269C0EF62642
:1012E000210EF722020EF626000EF7220800F55016
:1012F000E66ED950190F146EDACF15F0DF500F01DA
:101300001424E96E000E1520EA6EE552E750EF6EE8
:10131000DF2A5CD7DCD1F50EDB50020801E020D1DA
:1013200000016A516C25146E030E156E15C00EF087
:1013300014C009F0DFEC21F0095000018127815130
:10134000F66EF76A0D680E6AF6CF08F0F7CF09F06F
:101350001BEC15F004C0F6FF05C0F7FF030EF70203
:10136000F3CFF7FFF602F3CFF6FFF450F7269C0E0B
:10137000F626210EF72208000B0EF5CFDBFF000149
:101380008151F66EF76A0D680E6AF6CF08F0F7CF56
:1013900009F01BEC15F004C0F6FF05C0F7FF030EC3
:1013A000F702F3CFF7FFF602F3CFF6FFF450F7267C
:1013B0009C0EF626210EF722010EF626000EF722CD
:1013C0000800120EF5CFDBFF00018151F66EF76ABF
:1013D0000D680E6AF6CF08F0F7CF09F01BEC15F098
:1013E00004C0F6FF05C0F7FF030EF702F3CFF7FFC7
:1013F000F602F3CFF6FFF450F7269C0EF626210EE8
:10140000F722020EF626000EF7220800190EF5CF7D
:10141000DBFF800E00018125F66EF76A000EF722D1
:101420000D680E6AF6CF08F0F7CF09F01BEC15F047
:1014300004C0F6FF05C0F7FF030EF702F3CFF7FF76
:10144000F602F3CFF6FFF450F7269C0EF626210E97
:10145000F7220800070EF5CFDBFF800E0001812583
:10146000F66EF76A000EF7220D680E6AF6CF08F0E6
:10147000F7CF09F01BEC15F004C0F6FF05C0F7FF2D
:10148000030EF702F3CFF7FFF602F3CFF6FFF450A7
:10149000F7269C0EF626210EF722010EF626000EE8
:1014A000F7220800080EF5CFDBFF800E0001812532
:1014B000F66EF76A000EF7220D680E6AF6CF08F096
:1014C000F7CF09F01BEC15F004C0F6FF05C0F7FFDD
:1014D000030EF702F3CFF7FFF602F3CFF6FFF45057
:1014E000F7269C0EF626210EF722020EF626000E97
:1014F000F7220800090EF5CFDBFF010EDF6E070EA5
:10150000DF5C2DE2D9500B0F146EDACF15F0DF50EF
:101510000F011424E96E000E1520EA6E0B0EDBCFCE
:10152000EFFFD950120F146EDACF15F0DF501424EC
:10153000E96E000E1520EA6E120EDBCFEFFFD950D8
:10154000190F146EDACF15F0DF501424E96E000E77
:101550001520EA6E190EDBCFEFFFDF2AD0D7B7D008
:10156000F50EDB50030801E0B2D0010EDF6E070E6E
:10157000DF5C01E3ACD0DF50EA6A670FE96E000E72
:10158000EA22EF500E0DF350F66EF76A0D680E6A00
:10159000F6CF08F0F7CF09F01BEC15F004C0F6FF0A
:1015A00005C0F7FF030EF702F3CFF7FFF602F3CF04
:1015B000F6FFF450F7269C0EF626210EF7220800BF
:1015C000F550E66ED9500B0F146EDACF15F0DF50E0
:1015D0000F011424E96E000E1520EA6EE552E75063
:1015E000EF6EDF50EA6A670FE96E000EEA22EF50F5
:1015F0000E0DF350F66EF76A0D680E6AF6CF08F01E
:10160000F7CF09F01BEC15F004C0F6FF05C0F7FF9B
:10161000030EF702F3CFF7FFF602F3CFF6FFF45015
:10162000F7269C0EF626210EF722010EF626000E56
:10163000F7220800F550E66ED950120F146EDACF7B
:1016400015F0DF500F011424E96E000E1520EA6E2C
:10165000E552E750EF6EDF50EA6A670FE96E000E61
:10166000EA22EF500E0DF350F66EF76A0D680E6A1F
:10167000F6CF08F0F7CF09F01BEC15F004C0F6FF29
:1016800005C0F7FF030EF702F3CFF7FFF602F3CF23
:10169000F6FFF450F7269C0EF626210EF722020ED6
:1016A000F626000EF7220800F550E66ED950190F05
:1016B000146EDACF15F0DF500F011424E96E000E1E
:1016C0001520EA6EE552E750EF6EDF2A50D7010E83
:1016D000DB6A080EF36E010EDBCFF4FFF350F45C0F
:1016E00001E31AD1010EDB50F76A040FF66E1D0EEE
:1016F000F7220800F55001E10CD1010EDBCFE6FF27
:10170000ACEC02F0E552010EDB50F76A040FF66E06
:101710001D0EF7220800040EF5CFDBFFDF6A040E72
:10172000DB50DF5C01E3F5D0010EDB50920DF3CF0F
:1017300014F0F4CF15F00C0E14261D0E1522040E15
:10174000DB04D880DF54020D1450F324F66E1550DC
:10175000F420F76E0800020EF5CFDBFFDB50146EAD
:10176000156AFE0E141801E1155009E1E66AE66AF1
:10177000E66A53EC03F0E552E552E552C8D076EC48
:101780001CF0AFEC1CF0010EDB50920DF3CF14F007
:10179000F4CF15F00C0E14261D0E1522040EDB04DA
:1017A000D880DF54020D1450F324F66E1550F42047
:1017B000F76E010EF626000EF7220800030EF5CF95
:1017C000DBFFF50EDB501CE1030EDB50FE0FE66E77
:1017D000020EDBCFE6FFB4EC05F0E552E55200095E
:1017E0000FE0090EDBCFE6FF080EDBCFE6FF070EAA
:1017F000DBCFE6FF53EC03F0E552E552E55287D02C
:10180000FC0EDBCF16F0FE0EDBCFE6FF020EDB5048
:10181000E552E702F3CF15F0FD0EDBCFE6FF030E36
:10182000DB50E552E702F350152416C0E7FFE752FC
:1018300004E0E8427F0BE706FCE1146E060E176E2B
:1018400017C00EF014C009F0DFEC21F00528E76E98
:10185000050EE7CFDBFFD950200F156EDACF16F05B
:10186000050EDB500F011524E96E000E1620EA6EFE
:10187000EFCF14F0FA0EDBCFE6FF020EDB50E5529D
:10188000E702F3CF17F0FB0EDBCFE6FF030EDB50D2
:10189000E552E702F3501724D880145430E2D950AF
:1018A000190F146EDACF15F0050EDB501424E96E13
:1018B000000E1520EA6EEF50E66ED950120F166E2C
:1018C000DACF17F0050EDB501624E96E000E172054
:1018D000EA6EEF50E66ED9500B0F186EDACF19F0A2
:1018E000050EDB501824E96E000E1920EA6EEF5049
:1018F000E66E53EC03F0E552E552E55208D0E66A95
:10190000E66AE66A53EC03F0E552E552E552DF2A57
:1019100006D7010EDB2ADDD6030EE66EACEC02F034
:10192000E5521C0EDBCFE6FF150EDBCFE6FF0E0EF9
:10193000DBCFE6FF190EDBCFE6FF120EDBCFE6FFB3
:101940000B0EDBCFE6FF030EE66E41EC06F0146EE5
:10195000070EE15E1450270EE15C02E2E16AE552F7
:10196000E16EE552E7CFD9FF1200D9CFE6FFE1CF14
:10197000D9FF030EE126010EDB6A080EF36E010E9D
:10198000DBCFF4FFF350F45C2DE2010EDB50F76A7D
:10199000040FF66E1D0EF7220800F55020E0010E30
:1019A000DBCFE6FFACEC02F0E552010EDB50F76A4C
:1019B000040FF66E1D0EF7220800020EF5CFDBFFB6
:1019C000DF6A020EDB50DF5C0AE2E66AE66AE66A7C
:1019D00053EC03F0E552E552E552DF2AF2D7010E4F
:1019E000DB2ACBD7030EE15C02E2E16AE552E16E4D
:1019F000E552E7CFD9FF1200D9CFE6FFE1CFD9FFFB
:101A0000020EE126030E00018315DF6E8351E840CC
:101A1000E8403F0BE76E010EE7CFDBFFDB500C0A1F
:101A200001E14FD1070A01E135D1010A01E11AD1E3
:101A3000030A01E100D1010A01E1E6D00F0A01E148
:101A4000CCD0010A01E1B1D0030A01E198D0010A2A
:101A500001E17ED0070A65E0010A49E0030A30E0AF
:101A6000010A17E0DFCFE6FF330EE66EE66EE66EA4
:101A70003F0EE66EE66A010EE66E030EE66E010E9E
:101A8000E66EE66E5CEC07F0146E0A0EE15E145032
:101A90002FD1DFCFE6FF330EE66EE66EE66E3F0E29
:101AA000E66EE66A010EE66E020EE66E010EE66E68
:101AB000E66E5CEC07F0146E0A0EE15E145018D16D
:101AC000DFCFE6FF330EE66EE66EE66E3F0EE66EA5
:101AD000E66A010EE66E020EE66E010EE66EE66E38
:101AE0005CEC07F0146E0A0EE15E145001D1DFCFFA
:101AF000E6FF330EE66EE66E530EE66E400EE66EC1
:101B0000040EE66E010EE66E030EE66E020EE66E43
:101B1000010EE66E5CEC07F0146E0A0EE15E1450E6
:101B2000E7D0DFCFE6FF330EE66EE66EE66E3F0EE1
:101B3000E66EE66A010EE66E020EE66EE66A010EDB
:101B4000E66E5CEC07F0146E0A0EE15E1450D0D025
:101B5000DFCFE6FF330EE66EE66EE66E3F0EE66E14
:101B6000E66A010EE66E0A0EE66EE66AF60EE66EAE
:101B70005CEC07F0146E0A0EE15E1450B9D0DFCFB2
:101B8000E6FF660EE66EE66EA60EE66E3F0EE66EAB
:101B9000010EE66EE66AE66EE66EE66A5CEC07F05B
:101BA000146E0A0EE15E1450A3D0DFCFE6FFE66AA2
:101BB000E66A600EE66E400EE66E040EE66E010EFC
:101BC000E66E030EE66E020EE66EE66A5CEC07F069
:101BD000146E0A0EE15E14508BD0DFCFE6FF330E99
:101BE000E66EE66EE66E3F0EE66E010EE66EE66AA5
:101BF000050EE66EE66A010EE66E5CEC07F0146E0A
:101C00000A0EE15E145074D0DFCFE6FF330EE66EAD
:101C1000E66EE66E3F0EE66E010EE66EE66A020EB8
:101C2000E66EE66A010EE66E5CEC07F0146E0A0ED4
:101C3000E15E14505DD0DFCFE6FFE66AE66A600E33
:101C4000E66E400EE66E020EE66EE66E080EE66E7C
:101C5000E66A010EE66E5CEC07F0146E0A0EE15EB9
:101C6000145046D0DFCFE6FFCD0EE66ECC0EE66E0A
:101C7000E66E3F0EE66E010EE66EE66E030EE66E53
:101C8000E66A010EE66E5CEC07F0146E0A0EE15E89
:101C900014502ED0DFCFE6FF330EE66EE66EE66E12
:101CA0003F0EE66E010EE66EE66A020EE66E010E6D
:101CB000E66EE66A5CEC07F0146E0A0EE15E145004
:101CC00017D0DFCFE6FF330EE66EE66EE66E3F0E10
:101CD000E66EE66A010EE66E020EE66E010EE66E36
:101CE000E66A5CEC07F0146E0A0EE15E145000D058
:101CF000020EE15C02E2E16AE552E16EE552E7CFF5
:041D0000D9FF1200F5
:0C1D0400302A2A00002A3030FEFE030DB9
:101D1000040D040C030C020C050D060D070D070C39
:101D2000060C050C080D090D0A0D0A0C090C080C0F
:101D30000B0C0C0C0D0C0D0B0C0B0B0B0E0C0F0CE1
:101D4000100C100B0F0B0E0B110C120C130C130BB1
:101D5000120B110B140C150C160C160B150B140B87
:101D6000170C180C190C190B180B170BFFFF0000A0
:101D70000000000000000000000000000000000063
:101D80000000000000000000000000000000000053
:101D9000000000000000000000000000000001053D
:101DA00002050305030402040104040505050605F4
:101DB00006040504040407050805090509040804C8
:101DC00007040A060B060C060C050B050A050D0692
:101DD0000E060F060F050E050D051006110612065C
:101DE0001205110510051306140615061505140530
:101DF0001305FFFF000000000000000000000000CD
:101E000000000000000000000000000000000000D2
:101E100000000000000000000000000000000000C2
:101E200000000000000000000000000000000000B2
:101E3000FEFE090A080A0801090B0A0BFEFE080942
:101E400009090908080807080A0A0B0A0C0A0C09FC
:101E50000B090A090D0A0E0A0F0A0F090E090D09CE
:101E6000100A110A120A120911091009130A140A98
:101E7000150A150914091309160A170A180A180968
:101E800017091609FFFF0000000000000000000015
:101E90000000000000000000000000000000000042
:101EA0000000000000000000000000000000000032
:101EB0000000000000000000000000000000000022
:101EC0000000FFFF00000000000000000000000014
:101ED0000000000000000000000000000000000002
:101EE00000000000000000000000000000000000F2
:101EF00000000000000000000000000000000000E2
:101F000000000000000000000000000000000000D1
:101F100000000000000000000000000000000000C1
:101F200000000000000000000000000000000000B1
:101F300000000000000000000000000000000000A1
:101F40000000000000000000000000000000000091
:101F500000000000FFFF0000000000000000000083
:101F60000000000000000000000000000000000071
:101F70000000000000000000000000000000000061
:101F80000000000000000000000000000000000051
:101F90000000000000000000000000000000000041
:101FA0000000000000000000000000000000000031
:101FB0000000000000000000000000000000000021
:101FC0000000000000000000000000000000000011
:101FD0000000000000000000000000000000000001
:101FE00000000000000000030103020302020102DE
:101FF00000020303040305030502040203020603AF
:1020000007030803080207020602FEFE0A040B0487
:102010000B030A0309030C040D040E040E030D0345
:102020000C030F0410041104110310030F03120416
:1020300013041404140313031203FFFF0000000031
:102040000000000000000000000000000000000090
:102050000000000000000000000000000000000080
:102060000000000000000000000000000000000070
:10207000000000000000000001070207030703063C
:1020800002060106040705070607060605060406FC
:102090000707080709070906080607060A080B08C4
:1020A0000C080C070B070A070D080E080F080F078E
:1020B0000E070D0710081108120812071107100764
:1020C000130814081508150714071307FEFE170850
:1020D0001707160616071608FFFF0000000000008D
:1020E00000000000000000000000000000000000F0
:1020F00000000000000000000000000000000000E0
:1021000000000000000000000000000101010201C9
:1021100002000100000003010401050105000400A4
:102120000300060107010801080007000600090274
:102130000A020B020B010A0109010C020D020E0238
:102140000E010D010C010F0210021102110110010C
:102150000F01120213021402140113011201FEFEF8
:10216000150315041603FEFEFEFEFFFF000000002F
:10217000000000000000000000000000000000005F
:10218000000000000000000000000000000000004F
:1021900000000000000000000000000000FF00033D
:1021A000FC0006F90009F6000CF3000FF00012ED38
:1021B0000015EA0018E7001BE4001EE10021DE0024
:1021C00024DB0027D8002AD5002DD20030CF0033E1
:1021D000CC0036C90039C6003CC3003FC00042BD38
:1021E0000045BA0048B7004BB4004EB10051AE00F4
:1021F00054AB0057A8005AA5005DA200609F006381
:102200009C006699006996006C93006F9000728D37
:1022100000758A007887007B84007E8100817E00C3
:10222000847B008778008A75008D7200906F009320
:102230006C009669009966009C63009F6000A25D37
:1022400000A55A00A85700AB5400AE5100B14E0093
:10225000B44B00B74800BA4500BD4200C03F00C3C0
:102260003C00C63900C93600CC3300CF3000D22D37
:1022700000D52A00D82700DB2400DE2100E11E0063
:10228000E41B00E71800EA1500ED1200F00F00F360
:102290000C00F60900F90600FC0300FF0000FC003A
:1022A00003F90006F60009F3000CF0000FED001230
:1022B000EA0015E70018E4001BE1001EDE0021DB48
:1022C0000024D80027D5002AD2002DCF0030CC0022
:1022D00033C90036C60039C3003CC0003FBD0042D0
:1022E000BA0045B70048B4004BB1004EAE0051AB48
:1022F0000054A80057A5005AA2005D9F00609C00F2
:102300006399006696006993006C90006F8D00726F
:102310008A007587007884007B81007E7E00817B47
:10232000008478008775008A72008D6F00906C00C1
:102330009369009666009963009C60009F5D00A20F
:102340005A00A55700A85400AB5100AE4E00B14B47
:1023500000B44800B74500BA4200BD3F00C03C0091
:10236000C33900C63600C93300CC3000CF2D00D2AF
:102370002A00D52700D82400DB2100DE1E00E11B47
:1023800000E41800E71500EA1200ED0F00F00C0061
:10239000F30900F60600F90300FC0000FF0003FC4F
:1023A0000006F90009F6000CF3000FF00012ED0032
:1023B00015EA0018E7001BE4001EE10021DE0024FE
:1023C000DB0027D8002AD5002DD20030CF0033CC37
:1023D0000036C90039C6003CC3003FC00042BD0002
:1023E00045BA0048B7004BB4004EB10051AE00549E
:1023F000AB0057A8005AA5005DA200609F00639C37
:10240000006699006996006C93006F9000728D00D1
:10241000758A007887007B84007E8100817E00843D
:102420007B008778008A75008D7200906F00936C36
:10243000009669009966009C63009F6000A25D00A1
:10244000A55A00A85700AB5400AE5100B14E00B4DD
:102450004B00B74800BA4500BD4200C03F00C33C36
:1024600000C63900C93600CC3300CF3000D22D0071
:10247000D52A00D82700DB2400DE2100E11E00E47D
:102480001B00E71800EA1500ED1200F00F00F30C36
:1024900000F60900F90600FC03007800FC00C60005
:1024A000C300C300FF00FF00C300C300C300FC0063
:1024B000FE00C300C700C700FE00FF00C300FF000E
:1024C000FE003E007F80E100C000C000C000C08070
:1024D00060803F001F00F800FC00C600C300C3007E
:1024E000C300C300C700FE00FC00FF00FF00C000E7
:1024F000C000FE00FE00C000C000FF00FF00FF00A3
:10250000FF00C000C000FE00FE00C000C000C00010
:10251000C0001F803FC070C0E000C0C0C7C0C7C0BF
:10252000C0C07FC03E00C300C300C300C300FF00A3
:10253000FF00C300C300C300C300C000C000C00050
:10254000C000C000C000C000C000C000C000FF004C
:10255000FF000C000C000C000C00CC00CC00FC00B8
:102560007800C300C600CC00D800F000E000F00006
:10257000D800CC00C600C000C000C000C000C00031
:10258000C000C000C000FF00FF30C070E0F0F0B03D
:10259000D930CF30C630C230C030C030C080C180EA
:1025A000C180E180F180D980D980CD80C780C3808F
:1025B000C10078007C00E600C300C300C300C30074
:1025C000E7007E003C00FC00FE00C700C300C7001F
:1025D000FF00FE00C000C000C0003E007F80C18040
:1025E000C180C180CD80C780C3C07F603E00FC0039
:1025F000FE00C300C700CF00FE00FC00C600C30001
:10260000C3003C007E00C300C00078001E00030031
:10261000C3007F003E80FF80FF000C000C000C0018
:102620000C000C000C000C000C00C300C300C30025
:10263000C300C300C300C300C700FE007C00C3008A
:10264000C300C300C300C300C300C7006E003C004A
:102650001830C030C030C030C030C630CFB0DDF030
:10266000F870F030E000C300C30066003C001800C2
:102670003C006600C300C300C300C300C300C30026
:1026800066003C0018001800180018001800FF0031
:10269000FF0006000C00180030006000C000FF00C2
:1026A000FF007E00FF00C300C300C300C300C300DF
:1026B000C300FF007E006000E000E00060006000FA
:1026C000600060006000F000F0007800FC00CE00C8
:1026D000C6000E001C0030006000FF00FF00FC0080
:1026E000FE00070007003F003E0007000300FF0058
:1026F000FE00C300C300C300C380FF80FF000300CF
:10270000030003000300FF00FF00C000C000FF0043
:10271000FF0003008300FF00FE003E007F00C300B7
:10272000C000FE00FF80C380C7007F003E80FF80A6
:10273000FF800380030007000E001C0038003000FB
:1027400030007E00FF00C300C300FF007E00E300F6
:10275000C300FF007E007E00FF00C300C300FF0037
:102760007F000300C300FF007E00000000000000A7
:102770000000FE00FE00000000000000000000005D
:102780000000000000000000000000000000C00089
:10279000C0000000C000C0000000000000000000F9
:1027A000C000C00000000000C000C000C000600009
:1027B000600000000000C000C00808090808080AFE
:1027C00008020808080C0908080B08080908080C82
:1027D0000808080804080809080909080807020287
:0127E00002F6
:0E27E200019E05D0019E09AE02D0096C018E49
:1027F00009C003F0026A136A126A860E046E056A43
:10280000EBEF15F0019E08D0019E09AE05D0086CD3
:10281000091EE86A0922018E09C003F008C002F00F
:10282000136A126A8E0E046E056AEBEF15F00F7EC6
:10283000016A27EC16F03FEC16F001B6CFEF15F069
:1028400001A20AD001AA03D001BECFEF15F001A466
:10285000DBEF15F0D8EF15F001AA05D001ACDBEFE6
:1028600015F0D8EF15F001A00AD001A808D001BEDC
:1028700004D001A402D0E4EF15F0E8EF15F0126ADD
:10288000056A0F500A5C116E10E307C013F008C010
:1028900002F009C003F00AC010F00CC007F00DC030
:1028A00008F00EC009F0013A09D00CC013F00DC0B9
:1028B00002F00EC003F00FC010F0116C019E01BCBD
:1028C000018E10C004F001B017EF16F01A0E11605F
:1028D00017EF16F0046A0A6A01A408D0076C081EF4
:1028E000091E0A1EE86A082209220A2201AC08D041
:1028F000136C021E031E041EE86A02220322042235
:10290000066A115207E00A340932083207320632E9
:10291000112EF9D70750132608500222095003221E
:102920000A50042206C012F0019E04AE0BD0126CB5
:10293000131E021E031E041EE86A13220222032233
:102940000422018E04A006D0D88003320232133252
:102950001232102A10C004F0EBEF15F0016A27ECD8
:1029600016F03FEC16F001B6CFEF15F001A205D03E
:1029700001B8CFEF15F0D6EF15F001AA05D001B0E0
:10298000CFEF15F0D6EF15F001B002D001A802D0BC
:10299000E2EF15F0056A0F500A24046EE86A05227A
:1029A0007E0E045EE86A055A126A136A026A036AB6
:1029B0000E500902F4CF03F0F3CF02F00D500902DC
:1029C000F3501326F4500222000E03220E50080288
:1029D000F3501326F4500222000E03220C50090279
:1029E000F3501226F4501322000E022203220D503F
:1029F0000802F3501226F4501322000E0222032282
:102A00000E500702F3501226F4501322000E022239
:102A100003220C500802F4501226000E1322022248
:102A200003220D500702F4501226000E1322022238
:102A30000322EBEF15F0006A0EAE24EF15F00D6CDB
:102A40000E1EE86A0E22001E09AE2CEF15F0086C6F
:102A5000091EE86A0922001EABEC21F009BE3CEF1A
:102A600015F000AE000C086C091EE86A0922046C1F
:102A7000051EE86A0522000C00BE33EF15F0018840
:102A8000FF0C016A27EC16F001B64BEF15F001A21E
:102A90000AD001B403D07F0E096E19D0800E096EE2
:102AA00016D0096A14D001B0FCD7870E0A60F1D79E
:102AB0007E0E0A64F6D7860E0A5C04E0D8900932CE
:102AC0000A2AF9D701A403D0096C09AEEAD712008B
:102AD0007AEC15F001B6000C01B0000C01B4000C4A
:102AE000010C7AEC15F001B6000C01B0000C01A449
:102AF000000C010C016A27EC16F03FEC16F001B651
:102B0000120001AE08D001A004D001A802D00180BB
:102B10001200019012000F500A5C0BE10E50095C8C
:102B200008E10D50085C05E10C50075C02E10180F2
:102B30001200D8A002D0018E10D00A500FC00AF0A7
:102B40000F6E09500EC009F00E6E08500DC008F04F
:102B50000D6E07500CC007F00C6E0F500A5C10E0B1
:102B6000FF0F09E0019001B403D001AE018412000F
:102B700001AE019412000F2AD8900E320D320C32A1
:102B80000C50075E0D50085A0E50095A09BEEAD77C
:102B9000D8900736083609360A2EF8D7C8D77F0EE0
:102BA0000A6EFF0E096E086E076E12007F0E01BEE0
:102BB000FF0E0A6E02D07F0E0A6E800E096E086A42
:102BC000076AF3D701AE04D0800E0A6E096AF7D700
:102BD0000A6A096AF4D70350021013101210F8E0C1
:102BE00005BEF0D703BE0CD004500510EBE0D89022
:102BF00012361336023603360406D8A00506F2D77D
:102C00000550D4E10428D2E012AE11D07F0E121488
:102C100002E113A00CD0132AE86A0222032207E380
:102C2000D880033202321332042A0428BFE0045051
:102C3000C9E013C007F002C008F00334096E043085
:102C40000A6E09320A9E01BE0A8ED5EF15F00936CA
:102C50000A3602E30184017E06E101800A6A096AFC
:102C6000086A076A12000A2803E0D88009321200B5
:102C7000D890093202E101821200018612000E365C
:102C80000F3602E3018C017E06E101880F6A0E6AAD
:102C90000D6A0C6A12000F2803E0D8800E32120071
:0A2CA000D8900E32EAE1018A12001A
:062CAA00D9CFE6FFDACFEE
:102CB000E6FFE1CFD9FFE2CFDAFF240EE12402E301
:102CC000E168E652E16ED950FA0FE96EFF0EDA20A4
:102CD000EA6E020EEECFDBFF030EEECFDBFF040E3B
:102CE000EECFDBFF050EEECFDBFFE8D9F2D953ECD8
:102CF0001FF0146E060EE15C02E2E16AE552E16E3D
:102D00001450E76E0D0EE7CFDBFFDB50800815E0B7
:102D1000A0D90C6A0D6A0E6A0F6A14C007F015C0BC
:102D200008F016C009F017C00AF071EC15F0010A9E
:102D300010E1210E0001C16FC26B020EDB68030EB1
:102D4000DB68040EDB687F0EF36E050EF3CFDBFF4E
:102D500066D10D0EDB50050B01E061D10A0EDBCF11
:102D600014F00B0EDBCF15F0830E1426FF0E152288
:102D700014C0DEFF15C0DDFFD950060F65D976D926
:102D8000DF50010B0FE0DF06010E01E2DB06D95038
:102D9000180F5AD9D890EF36010EEB36020EEB36EB
:102DA000030EEB36D9CFE9FFDACFEAFF020E0D6E44
:102DB0000E6AEECF08F0EDCF09F01BEC15F008C05D
:102DC000EEFF09C0EDFF140EDB6A150EDB6A160E6E
:102DD000DB6A170EDB6A1C0EDB6A1D0EDB6A1E0E39
:102DE000DB6A010EF36E1F0EF3CFDBFF010EF36EF5
:102DF0000E0EF3CFDBFF0F0EDB6A0E0EDBCF14F0EF
:102E00000F0EDBCF15F0D890155004E61A0E145CA7
:102E1000000E155801E398D0180EDBCF14F0190EF0
:102E2000DBCF15F01A0EDBCF16F01B0EDBCF17F041
:102E3000010E1F0B07E0D8901436153616361736DC
:102E4000E806F9E1180E14C0DBFF190E15C0DBFF10
:102E50001A0E16C0DBFF1B0E17C0DBFF140EDBCFF4
:102E60001CF0150EDBCF1DF0160EDBCF1EF0170E7B
:102E7000DBCF1FF0010E1F0B07E0D8901C361D366C
:102E80001E361F36E806F9E1D9501C0FDDD81C505C
:102E9000EE24186E1D50EE20196E1E50EE201A6E94
:102EA0001F50EE201B6ED950180FCED81850EE5C74
:102EB000146E1950EE58156E1A50EE58166E1B50BF
:102EC000EE58176E200E14C0DBFF210E15C0DBFF7D
:102ED000220E16C0DBFF230E17C0DBFF200EDBCF58
:102EE00007F0210EDBCF08F0220EDBCF09F0230E16
:102EF000DBCF0AF00A34000E0A1809E6D880000E6B
:102F00000754000E0854000E0954000E0A5411E232
:102F1000D950200F99D8AAD8D8D81C0EDB50EE1261
:102F20001D0EDB50EE121E0EDB50EE121F0EDB509C
:102F3000EE12D9501C0F88D8AFD80E0EDB2A0F0E18
:102F400001E25BD7DB2A59D7C9D8100E14C0DBFFCA
:102F5000110E15C0DBFF180EDBCF08F0190EDBCF0A
:102F600009F0120E08C0DBFF130E09C0DBFFADD85D
:102F700093D8D950100F68D8EE50ED1012E0D95008
:102F8000120F62D8EE50ED1006E1A8D814501510BB
:102F90001610171006E099D8EE2A000EEE22EE2247
:102FA000EE220C0EDB6A91D8060EEECFDBFF070E89
:102FB000EECFDBFF080EEECFDBFF090EEECFDBFF1F
:102FC0007E0EF36E0A0EF3CFDBFF0B0EDB6AD950D9
:102FD000020FE66E000EDA20E66E70D8E1EC1FF00C
:102FE000E552E552E552E552DECFE6FFDDCFE6FFE2
:102FF00070D828EC1EF0146E060EE15C02E2E16A65
:10300000E552E16E1450020E06C0DBFF030E07C04E
:10301000DBFF040E08C0DBFF050E09C0DBFF19D87B
:1030200014C006F015C007F016C008F017C009F06C
:10303000240EE15C02E2E16AE552E16EE552E5CF81
:10304000DAFFE7CFD9FF1200E96E000EDA20EA6E50
:103050001200020EDBCF14F0030EDBCF15F0040ECE
:10306000DBCF16F0050EDBCF17F01200180EEECFF7
:10307000DBFF190EEECFDBFF1A0EEECFDBFF1B0ED0
:10308000EECFDBFF1200EECFE6FFEECFE6FFEECF96
:10309000E6FFEFCFE6FF1200D890030EEB32020EF0
:1030A000EB32010EEB32EF321200EE501416EE50FE
:1030B0001516EE501616EE5017161200D950060FC0
:1030C000E66E000EDA20E66E1200D950140F24EFDF
:1030D00018F0D950020FB8DF43EF18F0010E146E4C
:0C30E000156A166A176AF1DF55EF18F048
:0430EC000401185172
:1030F000600BE842E842E842E842E842000901E0A9
:1031000055D01951070A51E00B0A4FE0070A40E079
:10311000010A2CE00B0A28E0020A26E0030A22E05A
:10312000080A12E0010A0EE00F0A0AE0030A01E0B1
:103130003CD00001010EAB6F0001040EB76F36D01A
:1031400036D834D090D832D00001010EAB6F0001D8
:10315000B90EAC6F000EAD6F0001B8930001010E07
:10316000B06F24D0A8D822D0F4D820D00001010E0E
:10317000AB6F04011C510001AC6FAD6BBA0EAC27F4
:10318000000EAD230001B8930001010EB06F0ED008
:103190000001010EAB6F04011C51EA6ABA0FE96E1F
:1031A000000EEA221AC4EFFF01D000D01200800EF8
:1031B0000401185D57E11B51030A34E0010A10E0D5
:1031C000030A01E04DD00001010EAB6F0001DC0EDF
:1031D000AC6F400EAD6F120E0001B06FB16B40D0FE
:1031E0000001010EAB6F04011A51F66EF76AD89018
:1031F000F636F736720EF626410EF7220900F5CFA5
:10320000ACF00A00F5CFADF0020E0001F76AAC2574
:10321000F66EAD51F7220900F5CFB0F00A00F5CFF8
:10322000B1F01ED00001010EAB6F04011A51F66E11
:10323000F76AD890F636F736760EF626410EF72264
:103240000900F5CFACF00A00F5CFADF0ACC0F6FF49
:10325000ADC0F7FF0800F5500001B06FB16B00D0B2
:103260000001B88312000001010EAB6F0F0EE66E75
:10327000710EE66E0F0EE66E13EC1EF0E552E5528F
:10328000E552010EE66EBA0EE66E000EE66E13EC27
:103290001EF0E552E552E5521AC4B9F004011A5184
:1032A00004E10001050EB76F05D00001060EB76FEF
:1032B000C4EC1EF012000401206B216B04011851B4
:1032C0001F0B020A14E0030A0EE0010A01E033D0EA
:1032D0000001010EAB6F040120810001B8A102D0F2
:1032E0000401208328D00001010EAB6F24D000011F
:1032F000010EAB6F04011C510F0B080DF350156A42
:10330000000F146E040E15221C51800B01E0010EFB
:10331000040DF35000011424AE6F000E1520AF6FA2
:10332000AEC0E9FFAFC0EAFFEF50040B03E00401B9
:10333000010E206F00D00001AB050AE10001200E54
:10334000AC6F040EAD6F0001B8930001020EB06FB8
:10335000120004011A0510E118511F0B00090CE1BD
:103360000001010EAB6F030E0401195D03E10001C2
:10337000B88102D00001B89104011A513AE1185104
:103380001F0B020836E11C510F0B000932E000014F
:10339000010EAB6F04011C510F0B080DF350156AA1
:1033A000000F146E040E15221C51800B01E0010E5B
:1033B000040DF35000011424AE6F000E1520AF6F02
:1033C000030E0401195D07E1840EAEC0E9FFAFC032
:1033D000EAFFEF6E0ED01CAF06D0AEC0E9FFAFC063
:1033E000EAFFEF6A06D0880EAEC0E9FFAFC0EAFF81
:0433F000EF6E12006A
:0C33F4006C5002E0000E01D0010E000938
:103400000BE0040100513C0BE842E8420D0802E1E8
:103410000CD801D01CD808D06C5002E0000E01D0AE
:10342000010E040901E023D81200D9CFE6FFE1CF55
:10343000D9FFE6520001AA6BAB6BB06BB16B76ECB7
:1034400018F0DDD8E552E552E7CFD9FF1200020EA1
:103450000001AA5D0AE196D8040100BD03D0C80EA0
:10346000006F02D0880E006F01D00FD91200040E39
:103470000001B75D0AE11AC46EFF6E50000803E256
:10348000050EB76F02D0030EB76F0001AA050AE15F
:103490000BD8040104BD03D0C80E046F02D0880EFF
:1034A000046F01D0F2D81200D9CFE6FFE1CFD9FFE7
:1034B000020EE1260001080EB05D000EB15905E2D2
:1034C000B0C0DEFFB1C0DDFF03D0080EDE6EDD6AE6
:1034D000040104930491010EDB500413DFCF05F4C3
:1034E000000EDB500001B05F010EDB50B15B200E1F
:1034F000AE6F040EAF6F0001B8A31ED0D9CFE9FFA5
:10350000DACFEAFFEE50ED1016E0ACC0F6FFADC02A
:10351000F7FF0800F550AEC0E9FFAFC0EAFFEF6E5D
:103520000001AE2B000EAF23AC2BAD23DF06010E46
:1035300001E2DB06E3D71CD0D9CFE9FFDACFEAFFFF
:10354000EE50ED1015E0ACC0E9FFADC0EAFFEF5062
:10355000AEC0E9FFAFC0EAFFEF6E0001AE2B000E78
:10356000AF23AC2BAD23DF06010E01E2DB06E4D76F
:10357000020EE15C02E2E16AE552E16EE552E7CF5C
:10358000D9FF1200D9CFE6FFE1CFD9FF020EE12625
:10359000030E04010015E76E010EE7CFDBFF01C447
:1035A000DFFFDE500001B027DD50B123200EAC6FED
:1035B000040EAD6FD9CFE9FFDACFEAFFEE50ED1080
:1035C00014E0ACC0E9FFADC0EAFFEF50AEC0E9FFC8
:1035D000AFC0EAFFEF6EAE2B000EAF23AC2BAD23D6
:1035E000DF06010E01E2DB06E5D7020EE15C02E236
:1035F000E16AE552E16EE552E7CFD9FF1200000122
:10360000AB510CE10401080E016F180E026F040E9D
:10361000036F840E006F0401046F35D0040118AFEE
:1036200022D00001B05104011E5D0001B15104011E
:103630001F5904E21EC4B0F01FC4B1F035DF000111
:10364000010EAA6F0401080E016F180E026F040E1E
:10365000036F800E006F0401200E066F040E076FCB
:10366000C80E046F10D00001020EAA6F0401056B92
:10367000C80E046F0401080E016F200E026F040EC5
:10368000036FC80E006F6D9812000001AA6B040151
:10369000080E016F180E026F040E036F880E006F84
:0636A0000401046B12009E
:0A36A600D9CFE6FFE1CFD9FF200ED7
:1036B000E126030EDB6A050EDB6A060EDB6A010EED
:1036C000F36E070EF3CFDBFF020EF36E080EF3CF9F
:1036D000DBFF030EF36E090EF3CFDBFF040EF36E78
:1036E0000A0EF3CFDBFF050EF36E0B0EF3CFDBFFFD
:1036F000060EF36E0C0EF3CFDBFF070EF36E0D0E0E
:10370000F3CFDBFF080EF36E0E0EF3CFDBFF090ED7
:10371000F36E0F0EF3CFDBFF0A0EF36E100EF3CF36
:10372000DBFF0B0EF36E110EF3CFDBFF0C0EF36E0F
:10373000120EF3CFDBFF0D0EF36E130EF3CFDBFF94
:103740000E0EF36E140EF3CFDBFF0F0EF36E150E9D
:10375000F3CFDBFF420EF36E160EF3CFDBFF490E05
:10376000F36E170EF3CFDBFF4B0EF36E180EF3CF95
:10377000DBFF450EF36E190EF3CFDBFF200EF36E69
:103780001A0EF3CFDBFF520EF36E1B0EF3CFDBFFEF
:10379000410EF36E1C0EF3CFDBFF560EF36E1D0EC3
:1037A000F3CFDBFF450EF36E1E0EF3CFDBFF1F0ED4
:1037B000DB6A90D89FEC03F0100EF36E020EF3CF8D
:1037C000DBFF400EF36E020EDBCFF4FFF350F45C30
:1037D0001AE2D950060F146EDACF15F0020EDB5044
:1037E0000F011424E96E000E1520EA6EEF5008E177
:1037F000020EDB50F00FE76E050EE7CFDBFF03D0C4
:10380000020EDB2ADED7020EDB6A050EDB50F36EFA
:10381000020EDBCFF4FFF350F45C47E2D950060F01
:10382000146EDACF15F0050EDBCFE6FF020EDB508B
:10383000E552E75C0F0F0F011424E96E000E15200E
:10384000EA6EEF50E66EB7EC04F0E552E76E040E58
:10385000E7CFDBFFDB5020080BE1070E146E030EF1
:10386000DBCFE7FF1450E726030EE7CFDBFF1AD0CC
:10387000030EDBCFE6FF040EDBCFE6FF36EC04F0F1
:10388000E552E552040EDBCFE6FF24EC04F0E552EE
:10389000020F146E030EDBCFE7FF1450E726030E72
:1038A000E7CFDBFF020EDB2AB0D7030EDBCFE6FF4C
:1038B0008AEC03F0E5528BEC00F0FCEC0CF0FBD74B
:1038C000200EE15C02E2E16AE552E16EE552E7CFEB
:1038D000D9FF1200140E6F6E0001B76B0001B86BB8
:1038E0000001B96B6EEC1DF08FEF1CF06EEC1DF05B
:1038F0006FBE02D08DEC1DF01200DACFE4FFE2CFF4
:10390000DAFFE652E552E5CFDAFF1100DACFE4FF45
:0E391000E2CFDAFFE652E552E5CFDAFF110012
:02391E00966AA7
:10392000956A946A936A030E926E836A826A816AC8
:10393000806E846A0C0EE66E040EE66E9F0EE66ED6
:103940000DEC21F0E552E552E552800EE66EE66A96
:10395000E66A44EC21F0E552E552E5521200060E0B
:103960000001B75D03E36D50020B01E001D002D806
:1039700012001200D9CFE6FFE1CFD9FF470EE126B2
:10398000410EDB6A400EE66ED9CFE6FFDACFE6FFE6
:1039900013EC1FF0E552E552E552000901E194D025
:1039A000070EDBCFE6FF060EDB500A0DF350E552A3
:1039B000E724E66E16EC00F0E5520001B351DF5C3F
:1039C00005E1010EDB50B45D01E17ED0DFCFB3F045
:1039D000010EDBCFB4F0B5EC0CF09FEC03F0100E51
:1039E000F36E400EF3CFDBFFF36EDBCFF4FFF3504B
:1039F000F45C17E2D9CF14F0DACF15F0400EDB50AB
:103A00000F011424E96E000E1520EA6EEF5006E156
:103A1000400EDB50F00F0001B66F03D0400EDB2AE2
:103A2000E3D7400EDB6A0001B651F36E400EDBCFE8
:103A3000F4FFF350F45C42E2D9CF14F0DACF15F082
:103A4000400EDB50B65D0F0F0F011424E96E000E1F
:103A50001520EA6EEF50E66EB7EC04F0E552E76E23
:103A6000420EE7CFDBFFDB5020080BE1070E146EA0
:103A7000410EDBCFE7FF1450E726410EE7CFDBFF17
:103A80001AD0410EDBCFE6FF420EDBCFE6FF36EC6D
:103A900004F0E552E552420EDBCFE6FF24EC04F0E1
:103AA000E552020F146E410EDBCFE7FF1450E726FC
:103AB000410EE7CFDBFF400EDB2AB5D7410EDBCF4F
:103AC000E6FF8AEC03F0E552470EE15C02E2E16AB0
:0C3AD000E552E16EE552E7CFD9FF12008D
:043ADC006DA60FD8EC
:103AE00002D06DB613D80001B70508E16DBA06D053
:103AF000686A696A69806988020EB76F12006D6A28
:103B0000696A6D860001010EB76F12006D6A696AFD
:103B10000001B76B120086EF1DF00001B75101E103
:103B20003AD06850040B04E06950040B01E038D827
:103B30006DB231D06850010B04E06950010B01E017
:103B400050D86850100B04E06950100B01E024D8E5
:103B50006850400B04E06950400B01E037D86850D2
:103B6000200B04E06950200B01E032D86850020BB2
:103B700004E06950020B01E032D8030E0001B75D8A
:103B800001E209D06850080B06E06950080B03E019
:103B9000FAEC19F068961200698468986D82120038
:103BA0006D926994689412000001B8A10ED0F8DFFC
:103BB0006D840001100EBF6F0E0EC06FBF07000EA8
:103BC000C05BBF51C011FAE16D941200689C1200F5
:103BD00070A003D045EC1BF07090689A12006892B8
:103BE00012006A6A686A9F0E6B6E7B0E696E6E6A5F
:103BF0000F0EE66E710EE66E0F0EE66E14D8E552ED
:103C0000E552E552160E706E68A602D06896FCD793
:103C10006D9845EC1BF00001B8910001B96B0001F3
:103C2000030EB76F1200D9CFE6FFE1CFD9FFFD0E2B
:103C3000DBCFE9FFFE0EDBCFEAFFFC0EDB5004E03A
:103C4000EE6AFC0EDB06F9D7E552E7CFD9FF12008A
:103C500096D8E1CFD9FFE2CFDAFF0C0EE12402E3E0
:103C6000E168E652E16ED950FA0FE96EFF0EDA20F4
:103C7000EA6E080EEECFDBFF090EEECFDBFF0A0E79
:103C8000EECFDBFF0B0EEECFDBFF79D8D950080F5C
:103C9000E96E000EDA20EA6EEECFE6FFEECFE6FF29
:103CA000EECFE6FFEFCFE6FF53EC1FF0146E060EEB
:103CB000E15C02E2E16AE552E16E1450E76E070E44
:103CC000E7CFDBFFDB50840B3AE1070EDB041AE1A0
:103CD000060EDB5006E0146A156A166A800E176E2F
:103CE00004D0146A156A166A176A080E14C0DBFF3E
:103CF000090E15C0DBFF0A0E16C0DBFF0B0E17C046
:103D0000DBFF1DD0F80EDBCF14F0F90EDBCF15F082
:103D1000D950040FE96E000EDA20EA6E1450EE2638
:103D20001550ED22D950080FE66E000EDA20E66E2F
:103D300026D8E1EC1FF0E552E552E552E552080EB7
:103D4000DBCF14F0090EDBCF15F00A0EDBCF16F037
:103D50000B0EDBCF17F014C006F015C007F016C02D
:103D600008F017C009F00C0EE15C02E2E16AE552CE
:103D7000E16EE552E5CFDAFFE7CFD9FF1200D9CFE8
:083D8000E6FFDACFE6FF1200B6
:083D88000001C36B1E0E716EF9
:103D90000401400E096F280E0A6F040E0B6F880E87
:103DA000086F0401680E0E6F040E0F6F400E0C6F4B
:103DB0001200D9CFE6FFE1CFD9FFE652FC0EDB506F
:103DC000400805E2400EF36EFC0EF3CFDBFFDF6A26
:103DD000FC0EDB50DF5C19E2DF50E76EFD0EDBCF3F
:103DE000E9FFFE0EDBCFEAFFE750E926000EEA22EC
:103DF000EF50E66EDF50EA6A680FE96E040EEA22C1
:103E0000E552E750EF6EDF2AE3D7FC0EDBCF0DF46F
:103E1000400E04010C170C7D880E0C13E552E55280
:103E2000E7CFD9FF1200D9CFE6FFE1CFD9FF0001DC
:103E3000C36B040108BF30D0FC0EDBCF14F0095176
:103E4000D880145403E2FC0E09C4DBFF0001C36BED
:103E5000FC0EDB50C35D19E2C351EA6A280FE96E1C
:103E6000040EEA22EF50E66EC351E76EFD0EDBCF83
:103E7000E9FFFE0EDBCFEAFFE750E926000EEA225B
:103E8000E552E750EF6EC32BE3D70401400E096FF4
:103E90000817087D880E08130001C35100D0E552B1
:063EA000E7CFD9FF12007C
:0A3EA600D9CFE6FFDACFE6FFE1CF47
:103EB000D9FFE2CFDAFFE652146815687F0E166E5E
:103EC000176AD950FA0FE96EFF0EDA20EA6EEE504B
:103ED0001416EE501516EE501616EE5017166AD838
:103EE00014C0EEFF15C0EEFF16C0EEFF17C0EEFFC8
:103EF000FD0EDB50800B02E0010E01D0000EE66EDD
:103F000059D8060EE926000EEA22E552E750EF6E78
:103F1000FC0EDBCF14F0FD0EDBCF15F0D89014367D
:103F20001536FC0E14C0DBFFFD0E15C0DBFFDB50A9
:103F3000E66E40D8040EE926000EEA22E552E7506C
:103F4000EE6EED6AFD0EDB50146E156AFF0E14184E
:103F500018E1155016E12ED8EECF14F0EECF15F083
:103F6000EECF16F0EFCF17F01450151016101710F3
:103F700006E0210E0001C16FC26B800E0BD0040E53
:103F800009D0FD0EDB5008E115D8EE6AEE6AEE6A44
:103F9000EE6A010EDF6E06D0020EDF6E0BD8EE5217
:103FA000EE52EE8EDF50E552E552E5CFDAFFE7CF75
:103FB000D9FF1200F80EDBCFE9FFF90EDBCFEAFFE5
:023FC0001200ED
:0E3FC200D9CFE6FFDACFE6FFE1CFD9FFE2CF9D
:103FD000DAFF5BD8153411E21450FE08000E1554B8
:103FE0000CE276D805E06CD8800EEE6EEE6847D015
:103FF00067D8800EEE6E7F0E0ED047D8D890155041
:1040000004E6010E145C000E15580BE261D805E0C1
:1040100057D8EE6A800EEE6E32D052D8EE6AEE6A53
:104020002ED047D8EECF14F0EECF15F0EECF16F02D
:10403000EFCF17F032D814C0EEFF15C0EEFF16C058
:10404000EEFF17C0EEFF21D81450010B05E025D874
:10405000020E3AD8EF8E04D020D8020E35D8EF9E4B
:1040600014D8D8901532143218D8030E2DD814C095
:10407000EFFF1AD804E011D8030E26D8EF8EE552D0
:10408000E5CFDAFFE7CFD9FF120013D8040E1CD812
:10409000EECF14F0EFCF15F01200FA0EDBCFE9FFF0
:1040A000FB0EDBCFEAFF120004D8060E0DD8EF504E
:1040B0001200FC0EDBCFE9FFFD0EDBCFEAFF1200A2
:1040C000ECDFEE6AEE6A1200E926000EEA22120028
:0C40D000220E0001C16FC26B54EF20F003
:0440DC0012010002CB
:1040E000000000086712020000000102000109023E
:1040F00020000101008032090400000200000000DD
:104100000705010340000107058103400001040386
:10411000090434034D006900630072006F006300FE
:1041200068006900700020005400650063006800AA
:104130006E006F006C006F0067007900200049007E
:104140006E0063002E002C03500049004300200045
:1041500045004E0043004F0044004500520020003F
:10416000560031002E003000300020004A00570079
:0C4170004200EE40EE400E41124146417C
:04417C001E0EF66EAF
:10418000000EF76E000EF86E00010900F550A56FE5
:104190000900F550A66F03E1A56701D03DD00900E5
:1041A000F550A06F0900F550A16F0900F550A26FFE
:1041B00009000900F550E96E0900F550EA6E0900A2
:1041C00009000900F550A36F0900F550A46F09001C
:1041D0000900F6CFA7F0F7CFA8F0F8CFA9F0A0C05C
:1041E000F6FFA1C0F7FFA2C0F8FF0001A35302E150
:1041F000A45307E00900F550EE6EA307F8E2A40708
:10420000F9D7A7C0F6FFA8C0F7FFA9C0F8FF0001C3
:0A421000A507000EA65BBFD7120041
:06421A00D9CFE6FFDACF68
:10422000E6FFE1CFD9FFE2CFDAFFC26AC06AFC0E37
:10423000DB407F0B3C0BC26EFC0EDB38F00B300B0F
:10424000146EFB0EDB500F0B1410C16EFD0EDB5015
:10425000040DF350380B156EFD0EDB380F0B070BFA
:10426000146EFD0EDB50800B14101510C06EFC0E8A
:10427000DBAE03D09E9C9D8CF28CC280E552E5CFD4
:08428000DAFFE7CFD9FF1200BD
:08428800D9CFE6FFDACFE6FF13
:10429000E1CFD9FFE2CFDAFF3F0EC716C66AFD0EA7
:1042A000DB50C612FB0EDB50C712FC0EDB50030ABC
:1042B00009E0010A04E0020A06E1C78C04D0C78CB9
:1042C000C68801D0C688FD0EDB50050A03E0010A4E
:1042D00003E1928A938201D093929380949EC68A3E
:0C42E000E552E5CFDAFFE7CFD9FF12006E
:0442EC00D9CFE6FF41
:1042F000DACFE6FFE1CFD9FFE2CFDAFFE652C950CD
:10430000DF6E9E96C69EFD0EDB50C96EC6AE02D015
:10431000FF0E03D09EA6FED7000EE552E552E5CF74
:08432000DAFFE7CFD9FF12001C
:08432800D9CFE6FFDACFE6FF72
:10433000E1CFD9FFE2CFDAFFC30EC214146EFD0E37
:10434000DB407F0B3C0B1410C26EE552E5CFDAFF69
:06435000E7CFD9FF1200C7
:0A435600056A046A100EE76ED890A5
:1043600008360936043605360D50045C0E500558E3
:1043700005E30D50045E0E50055A082AE72EF0D7CB
:02438000120029
:0E438200000EF36E00EE00F0080E01D81200DF
:10439000EA6002D0EE6AFCD7F350E9601200EE6AE0
:0243A000FCD748
:0E43A20013EE00F023EE00F0F86A019CBEEC72
:0E43B00020F003EC00F053EC1BF0FBD71200E2
:0243BE00056A8E
:1043C000080EE76ED890093605360E50055C02E3FC
:0A43D000056E092AE72EF7D7120048
:0643DA00FF0EE350E84E67
:1043E0001200000000D000D000D0E82EFAD7120052
:1043F0005049432D56454C4C454D414E2056312E8B
:044400003030000058
:0C440400C450176E166AC3501610F36EF9
:0644100017C0F4FF1200CA
:04441600C28212004C
:06441A00140AD7233C0A3E
:10442000D7233C0AD7233C0AD7233C0AD7233C0A8C
:07443000D7233C0AD7233C0F
:020000040030CA
:0100000024DB
:010001000EF0
:010002003FBE
:010003001EDE
:010005008179
:010006008079
:010008000FE8
:01000900C036
:01000A000FE6
:01000B00E014
:01000C000FE4
:01000D0040B2
:00000001FF
